:020000020000FC
:1020000007EB0093E50000E10093E6000FE000938A
:10201000E70000E80093E40008950F921F920F93E9
:102020001F932F933F93AF93BF93EF93FF93125060
:10203000003249F00A3220F0013610F40C942410DA
:1020400000E60C9424100CE20A52000F000FE4E9A1
:10205000F0E20024E00FF01DACEEBB27212F169517
:10206000A10F34E000EF20FD0295059020FD0294C1
:102070001C90102210281C9215963A95B1F7FF91EA
:10208000EF91BF91AF913F912F911F910F911F90B1
:102090000F900895080A0A0E00080A0200000000C6
:1020A00000000A0001050A000800000409050505F2
:1020B0000801010001010E0101010B0100050B00E7
:1020C00001040B0101040F010101010001050F01D1
:1020D00001050B01000200040000000008000008D8
:1020E00000000A01000200040000000000000000DF
:1020F00001050F000109090301040401010901039D
:1021000001040E0101040E0001040D0100050F0081
:10211000000800020001050108040608000404018B
:1021200008070500000705080105050101050E0067
:102130000105050901050E08010200090108000258
:1021400000050501080404040005050C0802000C44
:102150000802000209000005010404010002000851
:10216000010101010000000000000001090F0F0F34
:100000000C940800444C4F5548592054455854000E
:100010000FEF0DBF04E00EBF0E940010E4E0F0E01F
:10002000C0E0D1E046E04395F42E61E0603081F01D
:1000300050E240E0242E342E442E542E642E499358
:100040004591403019F049930C9420000C942F00F6
:1000500040E0142E242E342E442E542EA0E245E0EF
:1000600012E0613091F0C0E0122C1992232C2992F9
:10007000342C3992452C49925A2E5992A03011F0C5
:10008000A591A993C0E00C9465000C946500A03084
:1000900061F00E945B000C9430000E945B000C94A5
:1000A00008000C9453000C945300A0E04030A9F3D6
:1000B0004A950C944900B3E028EC38EC3A95F1F7F6
:1000C0002A95D9F7BA95C1F70895603079F00A9169
:1000D000003039F00E940D101F15C9F213950C94D1
:1000E000650000E20E940D100C946C0009910C94C4
:0200F0006800A6
:00000001FF
