:020000020000FC
:1020000007EB0093E50000E10093E6000FE000938A
:10201000E70000E80093E40008950F921F920F93E9
:102020001F932F933F93AF93BF93EF93FF93125060
:10203000003249F00A3220F0013610F40C942410DA
:1020400000E60C9424100CE20A52000F000FE4E9A1
:10205000F0E20024E00FF01DACEEBB27212F169517
:10206000A10F34E000EF20FD0295059020FD0294C1
:102070001C90102210281C9215963A95B1F7FF91EA
:10208000EF91BF91AF913F912F911F910F911F90B1
:102090000F900895080A0A0E00080A0200000000C6
:1020A00000000A0001050A000800000409050505F2
:1020B0000801010001010E0101010B0100050B00E7
:1020C00001040B0101040F010101010001050F01D1
:1020D00001050B01000200040000000008000008D8
:1020E00000000A01000200040000000000000000DF
:1020F00001050F000109090301040401010901039D
:1021000001040E0101040E0001040D0100050F0081
:10211000000800020001050108040608000404018B
:1021200008070500000705080105050101050E0067
:102130000105050901050E08010200090108000258
:1021400000050501080404040005050C0802000C44
:102150000802000209000005010404010002000851
:10216000010101010000000000000001090F0F0F34
:040000000C9400015B
:100200000FEF0DBF04E00EBF0E9400100E94B1016D
:1002100012E050E012E00E94C1014030A9F403E571
:100220000E940D1004E513950E940D1001E4139532
:100230000E940D1002E513950E940D1004E5139520
:100240000E940D100C940A0100E213950E940D10FB
:1002500013950E940D1013950E940D1013950E9486
:100260000D1012E000E30E949601102E139500E39A
:100270000E949601202E139500E30E949601302ED5
:1002800090E0121439F5231429F512E007E50E94D5
:100290000D1009E413950E940D100EE413950E94B1
:1002A0000D100EE413950E940D1005E413950E94A5
:1002B0000D1002E513950E940D1067E00E94A60143
:1002C0000E948B0167E00E94A60193959330E9F6A6
:1002D0000C940A0112E00CE40E940D100FE4139537
:1002E0000E940D1003E513950E940D1005E413956F
:1002F0000E940D1002E513950E940D1067E00E9408
:10030000A6010E948B0167E00E94A601939593309D
:1003100009F70C940A0112E000E20E94900108958E
:100320000E940D1013951830D9F708950E940D10F2
:1003300063E00E94A6010E94C101403031F40395A0
:100340000A33A1F700E30C949601089576E988EC4E
:100350008A95F1F77A95D9F76A95C1F708950C94C3
:10036000AF011DB1137F0EB10C601DB90EB900E0D5
:1003700000937F0014B11F7205B1006D14B905B967
:1003800008950F931F9303B14FEF4A95F1F713B1FF
:10039000007110710117B9F740E0003031F44517D2
:1003A00029F441E051E00C94D60150E01F910F91E7
:0203B0000895AE
:00000001FF
